{
    "contractName": "RemixContract",
    "abi": [
        {
            "inputs": [],
            "stateMutability": "nonpayable",
            "type": "constructor"
        },
        {
            "inputs": [],
            "name": "defaultGreeting",
            "outputs": [
                {
                    "internalType": "string",
                    "name": "str",
                    "type": "string"
                }
            ],
            "stateMutability": "pure",
            "type": "function"
        },
        {
            "inputs": [],
            "name": "getGreeting",
            "outputs": [
                {
                    "internalType": "string",
                    "name": "",
                    "type": "string"
                }
            ],
            "stateMutability": "view",
            "type": "function"
        },
        {
            "inputs": [
                {
                    "internalType": "string",
                    "name": "_message",
                    "type": "string"
                }
            ],
            "name": "setGreeting",
            "outputs": [],
            "stateMutability": "nonpayable",
            "type": "function"
        }
    ],
    "bytecode": "608060405234801561001057600080fd5b5060408051808201909152600c81526b090cad8d8de4082e6d0d2e6d60a31b602082015260009061004190826100e6565b506101a5565b634e487b7160e01b600052604160045260246000fd5b600181811c9082168061007157607f821691505b60208210810361009157634e487b7160e01b600052602260045260246000fd5b50919050565b601f8211156100e157600081815260208120601f850160051c810160208610156100be5750805b601f850160051c820191505b818110156100dd578281556001016100ca565b5050505b505050565b81516001600160401b038111156100ff576100ff610047565b6101138161010d845461005d565b84610097565b602080601f83116001811461014857600084156101305750858301515b600019600386901b1c1916600185901b1785556100dd565b600085815260208120601f198616915b8281101561017757888601518255948401946001909101908401610158565b50858210156101955787850151600019600388901b60f8161c191681555b5050505050600190811b01905550565b6103d5806101b46000396000f3fe608060405234801561001057600080fd5b50600436106100415760003560e01c8063791baac414610046578063a413686214610082578063fe50cc7214610097575b600080fd5b60408051808201909152600e81526d08e9a408ce4deda4082e6d0d2e6d60931b60208201525b6040516100799190610141565b60405180910390f35b6100956100903660046101a5565b61009f565b005b61006c6100af565b60006100ab82826102df565b5050565b6060600080546100be90610256565b80601f01602080910402602001604051908101604052809291908181526020018280546100ea90610256565b80156101375780601f1061010c57610100808354040283529160200191610137565b820191906000526020600020905b81548152906001019060200180831161011a57829003601f168201915b5050505050905090565b600060208083528351808285015260005b8181101561016e57858101830151858201604001528201610152565b506000604082860101526040601f19601f8301168501019250505092915050565b634e487b7160e01b600052604160045260246000fd5b6000602082840312156101b757600080fd5b813567ffffffffffffffff808211156101cf57600080fd5b818401915084601f8301126101e357600080fd5b8135818111156101f5576101f561018f565b604051601f8201601f19908116603f0116810190838211818310171561021d5761021d61018f565b8160405282815287602084870101111561023657600080fd5b826020860160208301376000928101602001929092525095945050505050565b600181811c9082168061026a57607f821691505b60208210810361028a57634e487b7160e01b600052602260045260246000fd5b50919050565b601f8211156102da57600081815260208120601f850160051c810160208610156102b75750805b601f850160051c820191505b818110156102d6578281556001016102c3565b5050505b505050565b815167ffffffffffffffff8111156102f9576102f961018f565b61030d816103078454610256565b84610290565b602080601f831160018114610342576000841561032a5750858301515b600019600386901b1c1916600185901b1785556102d6565b600085815260208120601f198616915b8281101561037157888601518255948401946001909101908401610352565b508582101561038f5787850151600019600388901b60f8161c191681555b5050505050600190811b0190555056fea26469706673582212202baa82c9f85749b098487e796d746c03c340b6c2018de87b2fe9a585858564de64736f6c63430008130033",
    "sourcePath": "c:/Users/DELL/OneDrive/Desktop/neww/getset.sol",
    "compiler": {
        "name": "solc",
        "version": "0.8.19+commit.7dd6d404"
    },
    "functionHashes": {
        "defaultGreeting()": "791baac4",
        "getGreeting()": "fe50cc72",
        "setGreeting(string)": "a4136862"
    },
    "gasEstimates": {
        "creation": {
            "codeDepositCost": "196200",
            "executionCost": "infinite",
            "totalCost": "infinite"
        },
        "external": {
            "defaultGreeting()": "infinite",
            "getGreeting()": "infinite",
            "setGreeting(string)": "infinite"
        }
    }
}